:100000000C947B030C94B3030C94B3030C94B303D0
:100010000C94B3030C94B3030C94B3030C94B30388
:100020000C94B3030C94B3030C946B1A0C94AD1999
:100030000C947B2E0C94B3030C94B3030C94B30375
:100040000C94B3030C94B3030C94B3030C94B30358
:100050000C94B3030C942E2E0C94B3030C94B303A2
:100060000C94B3030C94B3030C94B3030C94B30338
:100070000C94B3030C94B3030C94B3030C94B30328
:100080000C94B3030C94B3030C94B3030C94B30318
:100090000C94B3030C94B3030C94B3030C94B30308
:1000A0000C94B3030C94B3030C94B303BB082F0953
:1000B000C3088D089108C7089408CA08D5089F0886
:1000C0002509A308D908A708DD080709AB08E10836
:1000D0001109B108E708F1089808CE089B08D10873
:1000E000B608EC08FD081D091F098908BF08380972
:1000F0006D0973095E09640979097F098509870A11
:10010000870AB70AB70A490B960C960C960C670B30
:10011000DA0BED0BED0BB009050D0A0D0F0D140DEB
:10012000190D1E0D230D280D2D0D320D390DCC0985
:10013000CC09CC09CC09CC093C0DCC093F0DCC092C
:10014000001317131E132D152D15571368137B134A
:10015000BD13C213EE1311144414471453145F1447
:100160007614AD14BF14E4140615B917E0179519E9
:10017000E01795192C184F1895195019601900049B
:10018000FD377A585A000004E6D6B4460200210131
:1001900016000000742FE5A3E0027700DD5D003D4E
:1001A000888986D3DC0AE842C324925842588FD803
:1001B000E75CA0D2616E26E888019A676C7887BCFC
:1001C0008D3709EA1EB48DA53C79858664380264B2
:1001D000F5EA7E4B697917D85845D735EBEABCD19B
:1001E000A3D4C5AB696DAE3ACBF26C250FBF7C963C
:1001F000B5667C70181019BDF798BBC14A9D7E107A
:10020000336F988607F4EB1E729ABBC88E59044A66
:1002100098127DB7B87068027D262E563FA0C16E39
:10022000B3ED69318C23D8D7E1F5D695849ED89D5E
:10023000AED9647F6BE582CF7A0E8EAF7DE6A2D217
:10024000C363C74088053005377196ABBBB4E289FC
:10025000E7A46D12660C0BD0D084C39F495DE040CB
:100260002F6CC6B6D55809C1E9C35D0EE63A94A312
:10027000D16DCD0E5B45CD16DF78C7A30000000021
:1002800080BD808CB9F5E76B0001F901F80400002E
:1002900028237388B1C467FB020000000004595A88
:1002A00005010980A101850319012AB7001501265E
:1002B000B700950175108100C0050C0901A10185E9
:1002C0000419012AA002150126A0029501751081CA
:1002D00000C005010906A1018506050719E029E707
:1002E000150025019508750181020507190029EF00
:1002F0001500250195F075018102050819012905F0
:10030000950575019102950175039101C00660FF85
:100310000961A1010962150026FF00952075088179
:10032000020963150026FF00952075089102C0059B
:10033000010906A101050719E029E7150025019526
:1003400008750181029501750881010507190029C9
:10035000FF150026FF0095067508810005081901A4
:100360002905150025019505750191029501750373
:100370009101C009025B00030100A0FA090400001A
:1003800001030101000921110100012244000705B8
:100390008103080001090401000203000000092193
:1003A0001101000122220007058203200001070538
:1003B00003032000010904020001030000000921D9
:1003C00011010001226D00070584032000011201C4
:1003D000000200000008EDFE000000010102030120
:1003E0001C037600690061006C003A00660036006C
:1003F0003400630032006200330063000000120327
:1004000067006C006F0077006900650036003000FF
:100410000000120373007400610063006B0073003E
:100420006B006200000004030904000000000000EB
:1004300000000000000000000000000000000000BC
:1004400000000000000000000000000000007E0F1F
:1004500000D4FFFFFFC7000000780000000000008C
:1004600000002A2B2800000000000000000000000F
:10047000000000000029000000002C1E3420212272
:1004800024342627252E362D3738271E1F202122DB
:10049000232425263333362E37381F040506070854
:1004A000090A0B0C0D0E0F10111213141516171844
:1004B000191A1B1C1D2F3130232D35040506070882
:1004C000090A0B0C0D0E0F10111213141516171824
:1004D000191A1B1C1D2F3130354C0100010004047A
:1004E00089266E26000002000200000489266E267E
:1004F000000003000100050489266E2600000400A8
:100500000200EA0389266E26C825050001000604BC
:1005100089266E26000006000200EC0389266E265E
:10052000000007000200020489266E260000080071
:100530000100070489266E2600001200020008044C
:1005400089266E260000130002000A0489266E2602
:100550000000140001000C0489266E26000015001E
:10056000000000004B25EE25000035001E001F0096
:10057000200021002200230024002500260027005F
:100580002D002E002A002B0014001A000800150070
:1005900017001C0018000C00120013002F00300080
:1005A0003100390004001600070009000A000B00A2
:1005B0000D000E000F003300340000002800E100A1
:1005C00000001D001B0006001900050011001000AE
:1005D000360037003800E5002178E000E300E20053
:1005E0000000000000002C0000000000E6000000F9
:1005F000E7006500E40000010101010101010101C2
:1006000002020202020202020203030303030303C3
:100610000304040404040404050505050506060690
:100620000606070707070708080808090909090A4D
:100630000A0A0B0B0B0C0C0C0D0D0D0E0E0E0F0FF2
:100640000F10101111111212131314141515161680
:100650001717181819191A1A1B1B1C1D1D1E1E1FEF
:100660002020212222232424252626272829292A3E
:100670002B2C2D2D2E2F3031323233343536373866
:10068000393A3B3C3D3E3F40414243444546474862
:10069000494A4C4D4E4F50515354555658595A5B38
:1006A0005D5E5F616264656668696B6C6D6F7072D8
:1006B000737577787A7B7D7E8082838587888A8C44
:1006C0008E8F91939596989A9C9EA0A2A3A5A7A978
:1006D000ABADAFB1B3B5B7BABCBEC0C2C4C6C9CB6F
:1006E000CDCFD1D4D6D8DBDDDFE2E4E7E9EBEEF025
:1006F000F3F5F8FAFDFF11241FBECFEFDAE0DEBFFD
:10070000CDBF04B603FE18C080915B0590915C05D7
:10071000A0915D05B0915E058730904BA740B04B2E
:1007200059F410925B0510925C0510925D051092D1
:100730005E05E0E0F8E3099511E0A0E0B1E0E8EE45
:10074000FEE602C005900D92AA37B107D9F725E061
:10075000AAE7B1E001C01D92AB35B207E1F70E94F4
:10076000630D0C9472370C940000ACE0B0E0EBEB3E
:10077000F3E00C94DA36DC0114962C91222311F468
:100780000C945F0D7C0161E00E9424328C01F70122
:100790008581882319F180914C0590914D05009732
:1007A000E9F008171907D1F09927E4E0880F991F9D
:1007B000EA95E1F7FC01ED58FD4F2081246020838C
:1007C00082599D4FDC010D931C930E94BC2F109207
:1007D0004B0561E0C7010E9424328C01F70135808E
:1007E000332009F4BBC0C80197578038910508F041
:1007F00001C1D02EFFE0F01708F4CEC58FEF93E0D3
:100800000E94F2358111C8C505E512E0DD2071F0C6
:10081000011524E0120709F4BFC5C8010E94F23592
:10082000811101C0DA940F5F1F4FF0CF19821A8235
:100830001B821C82AA24AA9468013FEFC31AD30A20
:10084000C8010E94F23589831A82882309F4A4C55D
:10085000813009F07EC0480142E0840E911CC6013F
:100860000E94F235B82E8A83882309F495C58FEF4C
:100870008B0D833060F4680153E0C50ED11CC401B8
:100880000E94F2358B83811164C08601D5CF8BEF36
:100890008B0D833078F5380183E0680E711CC4013C
:1008A0000E94F2358B83811102C06301EECF680193
:1008B00094E0C90ED11CC3010E94F2358C838823B9
:1008C00021F32B813C812130AFEF3A0718F0922FB2
:1008D00080E001C0C901B6E0BB1631F0E7E0BE160A
:1008E00031F00E94312BD1CF0E940C2BCECF0E9431
:1008F000922ACBCFF4E0BF1611F06401C6CFC40139
:100900000E94F235B82E680124E0C20ED11CC80145
:1009100003960E94F235BB2009F43EC5882309F4F2
:100920003BC5282F30E021503109A29EA001A39E93
:10093000500D11248B2D90E00197840F951F019786
:1009400008F4A3CFAFE9BFE01197F1F700C00000B2
:10095000F6CFCE0101960E942A1697CF6801E7E5EF
:10096000DE1AFFEFCF16D10411F008F05DC061E090
:1009700075E08C2D0E94EA31892BB9F5C60174E02F
:10098000880F991F7A95E1F7FC01E259FD4F22810A
:100990002130C9F42091010530910205232B29F162
:1009A0002091030530910405232BF9F020910505D2
:1009B00030910605232BC9F42091070530910805D5
:1009C000232B49F012C0223081F42091050530918B
:1009D0000605232B51F0FC01ED58FD4F20812E7FA1
:1009E000208382599D4F0E94BC2FD70115963C90C1
:1009F0003320D9F00E35BCE71B0761F00F35ECE76B
:100A00001E0761F00D35FCE71F0779F480910001A6
:100A1000811104C081E080930001BEC410920001E6
:100A200080E00E94A630B8C4312C80910001811171
:100A300008C0C80197558F3F910509F008F475C1AA
:100A4000E2C1480120EE821A910820904C02809168
:100A50001E02282A8091C903282A38E083169104AF
:100A600080F498012770332781E090E001C0880F5F
:100A70002A95EAF7332011F0282A18C080952822F9
:100A800015C0332009F411C110937D0100937C013E
:100A90000E94632E60933D0570933E0580933F0551
:100AA000909340051092450510924405D7018D9111
:100AB0009C910E94172121E030E0F90102C0EE0F65
:100AC000FF1F8A95E2F7FC87EB872091460530915E
:100AD000470538872F8340917C0150917D015A87CB
:100AE00049871D82432C512C5D81E52FF0E0EE0FEC
:100AF000FF1FE15CFC4FC080D180C114D10409F418
:100B0000EBC0211005C0D60112968C918111C9C08D
:100B1000F601838190E02B853C8582239323892BEA
:100B200009F4BFC08085982F977009F487E038E0FA
:100B30008316910440F4332019F081FD09C0B1C03F
:100B400082FD06C0AEC0332009F4ABC080FFA9C04F
:100B5000D601AD90BC900A151B0519F4332009F499
:100B6000A0C0EF81F885CE16DF0609F49AC0D60141
:100B70001D96ED91FC911E97309721F0808188237E
:100B800009F48FC0622DC6010E941331882309F435
:100B900088C00A151B0511F4320102C0612C712CAA
:100BA000B62DB170BE8381E0A114B10441F0B11142
:100BB00006C0E985FA85AE16BF0609F080E080FF21
:100BC00070C080E00E94A630D0924705C0924605D2
:100BD00081E080934305D60115968C918093410561
:100BE000BE81B11110C0AB2871F0F60180819181F6
:100BF0009C0124503109213A310518F40E94A42E99
:100C000002C00E949724D6011696AD90BC9017970B
:100C1000C5019A9581159F4110F4E0EEBE2255243E
:100C20005394C50101978F339E4708F0512CD6018C
:100C30001996ED91FC911A97309739F01B966D91AA
:100C40007C911C9781E009955822552019F1F601F5
:100C5000868197810E94883480934205C501F8E01F
:100C60008F16910418F40E94553014C00497813AED
:100C7000910520F48A2D0E94D22E0EC00E94F21FF0
:100C80008FE39CE90197F1F700C000008A2D0E94D4
:100C9000C12402C00E94F21F91E0692660FE70C16B
:100CA000C8CEAD81AF5FAD831FCF80917C019091A5
:100CB0007D010817190781F410927D0110927C01C3
:100CC00010923D0510923E0510923F05109240058E
:100CD0001092450510924405809146059091470574
:100CE000009709F4A6CEB8E08B16910438F4622D73
:100CF0000E94133181119DCE81E014C0FC0120813E
:100D000031810217130729F4311006C010924305F0
:100D100008C0332009F48DCEDC0118968C9185FD36
:100D200088CE80E00E94A63084CE5801BB24C50145
:100D300054E0880F991F5A95E1F7FC01E259FD4FE5
:100D40006F01D70115962C911597FC01ED58FD4FB9
:100D50005F01808120FB80F9808315968C91882328
:100D6000A1F10E946F2E9093990180939801D60172
:100D700012968C9112978F5F12968C931297909186
:100D80004B058091C903892B13968C9313978091FF
:100D90004C0214968C93149716964D915C9117976C
:100DA0001E966D917C911F97C6010E949D2FF501A3
:100DB000808181FF03C090E080E002C0902F812FEE
:100DC00090934C0580934D051EC0D6011C964D9105
:100DD0005C911D971E966D917C911F97C6010E9494
:100DE0009D2FF501808181FF0EC0C6010E94A32FB7
:100DF00080914C0590914D050817190721F4109228
:100E00004D0510924C058091050480FF47C20E9459
:100E10006F2E6C01D70115968C918823B1F18091CA
:100E20000E0182FF08C02AE931E040E0B60180E00F
:100E300090E00E945F280431BCE71B07A9F0053150
:100E4000ECE71E0751F00331FCE71F07A1F4809186
:100E50000E01816080930E010EC080910E01982FCB
:100E6000909590FB80F903C080910E018E7F809356
:100E70000E010E942528C801905281159043D8F494
:100E8000109211041092100409C2013E110521F4C0
:100E900080910E018F7E06C0053E110531F48091D0
:100EA0000E018F7D80930E0106C0C80190528115FE
:100EB000904308F4F3C180910E0180FFEFC1D70188
:100EC00015968C910832110538F40E311105B8F4DD
:100ED0000430110578F41CC00933110538F40D32C3
:100EE000110590F40B32110579F012C0043611058A
:100EF00059F00EC09091050494FD0AC044C0909131
:100F0000050493FD05C03FC09091050492FF3BC0CE
:100F1000882309F4C3C11092110410921004F8013F
:100F2000E851FC47E730F10508F4C4C110924A05C6
:100F3000C8019057839708F4D6C00631FCE71F0715
:100F400009F03CC221E08091C903982F9A7A309130
:100F5000040430FDE0C131FDE4C132FDE8C133FDE0
:100F6000ECC1222309F4F2C181E0911101C080E0BB
:100F700080937E01992309F4E7C185E30E94D22E74
:100F80000E94F21F09C2882309F4A6C090914C0266
:100F90008091C903892B8D7F79F1109211041092F1
:100FA00010048091050481FD27C0F80143E0F69507
:100FB000E7954A95E1F7EE71FF27E653FC4F98015C
:100FC0002F70332781E090E002C0880F991F2A9587
:100FD000E2F780959095208131818223932391833C
:100FE0008083A70160E0C8010E94442880914C02E0
:100FF0008D7F0E94131F6CC089E0F701AAE9B1E060
:1010000001900D928A95E1F710929D0110929C013A
:10101000809110049091110408171907E1F580914F
:10102000050485FF38C090910E0191FF02C086FF34
:1010300032C080910E0490910F045601A81AB90A8B
:10104000B701C8010E94272AA816B90620F5809189
:10105000C90381FF08C080910E01806180930E0159
:1010600082E00E94431F8091C90385FF08C08091E0
:101070000E01806280930E0180E20E94431F609106
:101080000E0166956170A701809110049091110482
:101090000E94442881C180914C029091C903982BF1
:1010A0009695917020910E0190FB21F920930E01ED
:1010B0008D7F0E94131F1093110400931004D0928F
:1010C0000F04C0920E0480910E01846080930E0183
:1010D00082E00E94571F60C1970140E0B601C8013D
:1010E0000E945F2859C184E090E00E9400369093EE
:1010F000550580935405F801E150F047E232F105BF
:1011000020F4EA5AFF4F0C949C368091540581607C
:10111000ACC0809155058860B4C080915405826050
:10112000A4C08091540520C08091540588609DC062
:10113000809155051EC0809155058260A2C08091A6
:101140005405806192C08091540580628EC0809168
:10115000540580648AC00E94E92380915405806808
:1011600084C080915405886084607FC0809155055B
:101170008260816086C0809154058E7F76C08091A8
:101180005505877F7EC0809154058D7F6EC080910C
:10119000540520C080915405877F67C08091550514
:1011A0001EC0809155058D7F6CC0809154058F7E47
:1011B0005CC0809154058F7D58C0809154058F7B11
:1011C00054C00E94E923809154058F774EC08091CE
:1011D0005405877F8B7F49C0809155058D7F8E7F19
:1011E00050C08091540582FB222720F991E092277C
:1011F00090FB82F990FB83F938C080915505982FB8
:10120000909591708E7F892B90FB81F93AC08091E7
:10121000540586FB222720F991E0922790FB86F95E
:1012200024C00E94E9238091540587FB222720F9DE
:1012300091E0922790FB87F918C061E001C060E05F
:101240008EE090E00E9416361EC08091540584FB0B
:10125000222720F991E0922790FB84F906C0809123
:101260005405982F909590FB80F9809354050BC0FE
:101270008091550583FB222720F991E0922790FB6E
:1012800083F980935505609154057091550584E06C
:1012900090E00E9434360E94E9237EC0A801F80144
:1012A000E851FC47E730F10528F0F70125812111CD
:1012B0003DCE91C3E858FF4F0C949C3606E221EED8
:1012C00041EE6AE17CE705C007E225EE45EE6BE101
:1012D0007CE7C7010E94E32F5FC006E221EE40EEEB
:1012E00068E17CE7F6CF07E225EE44EE69E17CE7B2
:1012F000F0CF06E221EE42EE6CE17CE7EACF07E2B6
:1013000025EE46EE6DE17CE7E4CF08E221E045EE14
:101310006EE17CE7DECF482F447409F41CCE90E0E8
:101320001ACE482F417109F418CE90E016CE482FFE
:10133000487809F414CE90E012CE827209F411CEEE
:10134000222321F010927E0189E218CE80917E0145
:10135000882311F085E301C089E20E94A42E10CEFB
:101360008091CA0480FF4AC3282F2E7F2093CA048D
:101370003091CB044091CC045091CD046091CE04C7
:101380007091CF048091D0049091D1040E941435C3
:101390001092C9040E94FA2B80912102877009F4EF
:1013A0008EC3F7018581882309F489C3809155058F
:1013B00082FF85C382E00E94571F81C30737BCE7C5
:1013C0001B0709F46CC30837ECE71E0709F46BC36D
:1013D000D70115968C918823E9F10330BCE71B07F0
:1013E00029F148F40115FCE71F0791F001302CE7C3
:1013F000120711F12FC00B353CE7130741F10C35F3
:101400004CE71407E1F00A351C4721F581E020C0C4
:101410000E94E9238FEF94E3ACE081509040A0401C
:10142000E1F700C000000E940A2EB6CF6FEF7FEFF9
:1014300080E090E00E9434360E947234ADCF8091FB
:10144000550582FB882780F991E0892701C080E05B
:101450000E946E1FD70117968D919C911897009747
:10146000C9F4D70115968C9115970D911C9188237D
:1014700049F0C8010E94DB20D82E682FC8010E94C5
:101480004B2104C0C8010E941721D82EB8018D2D10
:101490000E942C1D0E94491D182F092FF701B580AD
:1014A000C680C2943FE0C322809121028770F9F088
:1014B000BB20E9F0892F807F803461F080E2810FCA
:1014C0008830A8F0892F807E803221F4123078F0A5
:1014D000CC2069F08091550582FF09C082E00E940E
:1014E000571F809121028770AA24A3948111A12CF7
:1014F000902E92942FE09222892D90E08C309105CD
:1015000008F014C2FC01E158FF4F0C949C36902F58
:101510009F70802F807FD92E19F0D29490EFD9221E
:10152000BB20A9F0DD2009F4E1C180E2810F883001
:1015300010F0111104C08D2D0E944A1F05C080912A
:101540004B05D82AD0924B050E94F21FCFC1812FA4
:101550000E949724DD2009F4E9C180E2810F8830E0
:1015600068F1112359F18D2D0E943C1F2AC0902F44
:101570009F70802F807FD92E803219F0D29480EF17
:10158000D822112321F0113009F469C074C0809170
:10159000550582FD19C0BB2059F0DD2029F08D2DA5
:1015A0000E944A1F0E94F21F80E00E94C124BEC117
:1015B00080E00E949724DD2009F4B8C18D2D0E949F
:1015C000431F0E94F21FB2C1BB2081F1CC2009F45D
:1015D00056C0F1E0CF1212C080914C028D21D81676
:1015E00009F4A4C10E946F2E90934B0280934A028B
:1015F00080914C02D82AD0924C0298C18091060466
:10160000823008F493C1C81291C18D2D0E9490249C
:101610008D2D0E94271F80911E029D2D9823D91683
:1016200009F484C1D82AD0921E0280C1CC2069F06E
:1016300080910604823008F479C121E0C21276C19B
:101640008091C9038D2109F471C18D2D0E948924D7
:101650008D2D0E94271F8D2D0E94442067C18091EF
:101660000C04BB2021F08C1508F460C108C0C8161A
:1016700008F05CC10AC0BB2031F0C11037C18D2D0C
:101680000E94902453C1C1103AC18D2D0E9489241B
:101690004DC1802F86958695837019F0813061F059
:1016A00045C1BB2021F0812F902F937002C080E0B4
:1016B00090E00E942E2F40C1BB2021F0812F902F5F
:1016C000937002C080E090E00E94092F35C1802F06
:1016D0008370A1F5B1102EC1412F429546954770F8
:1016E000440F440F212F2F7030E0C901042E01C098
:1016F000880F0A94EAF714FF08C02FE030E001C019
:10170000220F4A95EAF7209501C020E0302F369548
:1017100036953370323069F040F440914D023130EB
:1017200019F0822B842302C0842B822B0E94BE21BD
:1017300001C1282B80914D028227F8CFBB2019F0E0
:10174000802F817001C08695882309F4F3C0412F52
:10175000429546954770440F440F212F2F7030E07B
:10176000C901042E01C0880F0A94EAF714FF08C0CB
:101770002FE030E001C0220F4A95EAF7209501C022
:1017800020E0302F369536953370323051F070F4BA
:1017900040918B01313019F0822B842308C0842BB7
:1017A00005C0282B80918B01822701C0822B0E94CB
:1017B0008021C0C0302F3F70D32EBB2039F0832F43
:1017C0000E94B221812F0E949024B4C0812F0E94D8
:1017D00089248D2D0E94A521ADC0123F11F128F45E
:1017E000103F41F0113FA9F17DC0133F01F1143FBB
:1017F00061F178C080910C04BB2021F0C81608F07C
:1018000095C003C08C1508F491C0202F2F7181E082
:1018100090E001C0880F2A95EAF790918B01892703
:1018200011C0802F8F71BB2009F464C07BC0BB2026
:1018300041F081E0902F9F7101C0880F9A95EAF7DF
:1018400001C080E00E94802171C08091550582FD19
:1018500006C0802F8F71BB2009F464C04BC08091FB
:101860000604823040F1BB20C1F0909121029770B4
:10187000943039F40E94501F802F8F710E94A5214F
:1018800054C0C81608F051C0402F4F71D42E842F79
:101890000E94B22163E08D2D07C0C81640F00E945F
:1018A000501F64E0802F8F710E94851F3EC081E031
:1018B0000E94571F3AC0BB2059F0502F5F71D52EA0
:1018C000852F0E94B22163E08D2D0E94851F2EC0BE
:1018D00081E00E94571F81E08C1540F582E00E9454
:1018E000571F24C0BB2049F0CC2011F0812F5DCEC2
:1018F000802F8F710E94B22119C0CC2089F019333A
:1019000029F480910A0490910B0404C0809108048A
:10191000909109040E945428812F0E94972406C0A8
:10192000802F8F710E94A52101C0A12C88EF890D05
:10193000843010F40E94532F812F902F0E94C121D8
:10194000811105C01092800110927F0128C0BB2038
:1019500019F0C110F7CF23C0C110F4CF20E0D70198
:101960004C9111965C91119712966C911297139667
:101970007C91139714968C91149715969C910E94C4
:10198000FF318091070483FFDDCF80917F0190912B
:1019900080010297B9F6812F0E942825D3CFAA2073
:1019A000A9F08091210280FD11C0F7011582869572
:1019B000869586950E94B221C7010E94B503809149
:1019C00021028695869586950E94A52160E0C70133
:1019D0000E94243274C00631FCE71F0709F4B3CA21
:1019E0008091C9038272FA01E052F847E531F105AE
:1019F00008F04AC0E557FF4F0C949C3681608093F5
:101A0000CA0461E0869586953CC049EE54E364EFD4
:101A100074E32CC044EF54E369EE74E327C049E655
:101A20005DE263E77DE222C043E75DE269E67DE2D5
:101A30001DC04FE45DE26CE57DE218C04CE55DE25F
:101A40006FE47DE213C045E35DE262E47DE20EC037
:101A500042E45DE265E37DE209C04EE55AE268E7F3
:101A60007AE204C048E75AE26EE57AE20E94F32B7C
:101A700093CC61E081E005C061E082E002C061E0FA
:101A800083E00E947D2D88CC07372CE7120749F0B0
:101A900008373CE7130709F09BCC82E008C081E0DF
:101AA00003C081E004C082E00E94B22102C00E9413
:101AB000A52143E062E081E00E9483216DCC2C9659
:101AC000E2E10C94F636A9E3B0E0E9E6FDE00C941F
:101AD000DA3685B7806885BF85B7806885BF84B7EB
:101AE000877F84BF0FB6F894A895809160008861C5
:101AF00080936000109260000FBE90E080E80FB607
:101B0000F89480936100909361000FBE85E79BE19C
:101B100090937B0180937A010E94452A0E94E329D9
:101B20000E946F290E9412290E94F1190E94101A26
:101B30008091E20084608093E20078948091C101FA
:101B40008823A1F01091E9001F709091EC00892F7B
:101B5000817090FD80E8182B1092E9008091E800D8
:101B600083FD0E94D6161F701093E90082E084BDA9
:101B700093E095BD9AEF97BD80936E000E94842FED
:101B8000811102C00E94DA310AE111E0FFE1EF2E7B
:101B9000F1E0FF2ED8018D918D018F3F11F00E9451
:101BA000621CE016F106B1F70FE111E0EDE2EE2E56
:101BB000E1E0FE2EF80181918F018F3F11F00E942C
:101BC000621CE016F106B1F78AE0E8EAF1E0DF0115
:101BD000282F1D922A95E9F7E1E8F1E0DF011D9237
:101BE0008A95E9F70E948A1E811102C00E94961E02
:101BF00082E090E00E94F23580938D0184E090E0D5
:101C00000E94003690935505809354050E94791CDC
:101C1000BFEFE6E7F1E0B150E040F040E1F700C08F
:101C200000000E94791C8091A80180FF08C06FEF1E
:101C30007FEF80E090E00E9434360E940A2E83E01D
:101C400090E00E94F2350E94BE2180918C018111AA
:101C500074C00E948A1E811104C00E94961E0E94B8
:101C60003A3588E090E00E94FA354B015C0184E24D
:101C700090E00E94F235282F30E040E050E060E034
:101C800070E080E090E000E20E94113728293929B5
:101C90004A295B292093CA043093CB044093CC0497
:101CA0005093CD046093CE047093CF048093D004FE
:101CB0009093D1042C7F89F50E943A3588E090E01A
:101CC0000E94FA356B017C0184E290E00E94F235BB
:101CD000282F30E040E050E060E070E080E090E0ED
:101CE0000E941137B22FA32FF42FE52F5B0197012C
:101CF0008601BC29A12BF22BE32BB093CA04A0933D
:101D0000CB04F093CC04E093CD046093CE04B09266
:101D1000CF048093D0049093D1040E940035109298
:101D2000C9048091CA0480FF05C060E0869586954D
:101D30000E947D2D81E080938C0181E091E0909361
:101D40005105809350052E012BE2420E511C8091CB
:101D5000C101853009F047C000E112E18091C10165
:101D6000853009F03CC08091C101843021F110928E
:101D7000560588E190E0A0E40FB6F894A89580930A
:101D800060000FBEA093600083B7817F846083BF33
:101D900083B7816083BF7894889583B78E7F83BF34
:101DA0000FB6F894A89580916000886180936000D8
:101DB000109260000FBE8091C001882309F4CECF3D
:101DC0000E94791CE8EAF1E081919191892B09F058
:101DD0004DC622EB31E02E173F07B1F7BFCF0E946F
:101DE000E9230E94532F0E94791C7EE8E72E71E0C0
:101DF000F72E08EA11E028E931E0D801F701419116
:101E000051918D919D91842795272E173F0719F0A9
:101E1000892BA9F305C0892B19F40E94661E43C0C3
:101E200068EA662E61E0762E312CD3018D909D906C
:101E30003D01F701A080B180A824B924A114B10408
:101E400049F1212CCC24C394D12CC5018C219D2196
:101E5000892BB9F02CAA3DAA0E946F2E9FAB8EABA6
:101E6000F1E0F8AF91E094012C213D21232B09F4FE
:101E700090E099AF4CA95DA96EA97FA988AD0E9499
:101E800033322394CC0CDD1C2EE02212DECFD7019E
:101E90008D929C923394B2E0EB0EF11CE5E03E1281
:101EA000C4CF0E94632E8091440590914505892BF3
:101EB00009F43EC04091390550913A0560913B05C7
:101EC00070913C052FB7F894809157059091580573
:101ED000A0915905B0915A052FBF841B950BA60BF5
:101EE000B70B4091350550913605609137057091DB
:101EF000380584179507A607B707D0F080914405E9
:101F0000909145050E94CF341092450510924405EA
:101F10001092390510923A0510923B0510923C053B
:101F2000109235051092360510923705109238053B
:101F300080914C0590914D05892B51F1809198012C
:101F4000909199010E94542E7C0189E0D2011D924A
:101F50008A95E9F7B20180914C0590914D050E9458
:101F6000272A8E159F05A0F480914C0590914D0570
:101F7000992734E0880F991F3A95E1F7FC01ED5855
:101F8000FD4F208122FD04C082599D4F0E94BC2F2D
:101F900080910F01882341F18091C0049091C10488
:101FA000009711F10E94542E2091120430911304D5
:101FB00028173907C8F49091BE048091BF04981780
:101FC00059F00E948C271092130410921204109260
:101FD000C1041092C00408C00E9422271092C104BC
:101FE0001092C0040E946C278091050480FF1EC0DF
:101FF00080910E0182FF1AC00E946F2E20910E0464
:1020000030910F04AC01421B530B20910C01309115
:102010000D014217530750F02AE931E041E0BC01BD
:1020200080911004909111040E945F288091C9044E
:10203000882309F44BC09091C8048091CA04869506
:102040008695891B8093C404923059F0933089F4AB
:10205000EEE7F1E0E590F4902CEBC22E2CE2D22ECC
:1020600010C088E2E82EF12C90E3C92E9CE2D92E14
:1020700008C0A0EDEA2EA7E0FA2EBDE5CB2EBAE20D
:10208000DB2E8091C504882361F01092C5040E9464
:102090006F2E9093C3048093C2041092C7041092D1
:1020A000C6040E946F2E2091C2043091C304821B8B
:1020B000930B8F3F9F4750F4E20EF31EF092C30440
:1020C000E092C20482EC94E0F60109950E94532F3D
:1020D0009091A301891721F08093A3010E94632EA0
:1020E0008091C101843009F032CE83E08093E90011
:1020F0008091E80082FF2BCE8091E80085FF24C00C
:102100000E94421B81111EC0F0E2EF2EF12C9E01B5
:102110002F5F3F4F690109C08091F100D6018D9377
:102120006D01B1E0EB1AF10869F08091E80085FDDE
:10213000F3CF8091E8008B778093E8000E94421BE8
:10214000882399F391E001C090E08091E8008B77BB
:102150008093E800992309F4FACDE090B201F09061
:10216000B3018981E114F10461F08E3F09F075C477
:102170008A81833008F438C28550833008F06DC4FA
:1021800033C28B3009F415C2C8F5853009F48AC012
:10219000B8F4823009F451C030F4813009F05BC4E6
:1021A0001A8289E08AC3833009F46FC0843009F051
:1021B00052C44C816B818A810E94C6269D8373C460
:1021C000873009F47DC008F478C0883009F4B2C0C3
:1021D000893009F040C42091CA043091CB04409169
:1021E000CC045091CD046091CE047091CF048091C5
:1021F000D0049091D1040E9414352FC4803109F489
:1022000017C178F48D3009F4B9C008F4B5C0FE01E7
:1022100031966F018E3009F4B5C08F3009F4DBC000
:102220001AC4823109F40AC108F405C1833109F4E2
:1022300031C18E3F09F4D8C10EC48A81823009F4BD
:102240002BC4833051F0813009F005C40E94632E05
:102250009B838C837D836E8300C480913305909132
:102260003405892B09F4F9C3FE013196CE010B9692
:10227000D8012C9111963C910E5F1F4F328323831E
:102280003296E817F907A1F7E8C38A81823009F08E
:10229000E2C36B817C818D819E810E94A2360E9467
:1022A000602FDBC32D813E813227232732274C81CB
:1022B0006B818A810E949F26D0C30E944331CDC387
:1022C0008A818138B1F050F4803809F0C6C320E02B
:1022D0004B816091CC048091CB0429C0823819F1E4
:1022E000833809F0BAC320E04091CD046C818B8122
:1022F0001EC060E08B810E947D2D9B818091CA046D
:10230000911108C08E7F8093CA041092C9040E9464
:10231000FA2BA3C381608093CA0460E086958695FA
:102320000E947D2D9AC38B818093CE0496C30E9418
:10233000F62C93C38A81813899F030F4803809F003
:102340008CC38091CD04B9C2823899F0833809F0EA
:1023500084C38091CB048B838091CC048C837DC318
:102360008091CA0480FF03C086958695A6C280E04E
:10237000A4C28091CE04A1C280E15EC081E08A83C4
:102380008BEA9BC20A811B81102701271027AC8092
:10239000B12CBDE1AB16B10408F05FC37F01C801E9
:1023A0008B5A9D4F97012C193D092A153B0508F0C2
:1023B00054C30B3AE1E01E0730F40E94F235D70116
:1023C00014968C9302C0F70114820F5F1F4FFFEF2A
:1023D000EF1AFF0AE4CF8091330590913405892BE1
:1023E00009F43BC30A811B81102701271027EC80C9
:1023F000F12C2DE1E216F10408F02FC35F01C801B2
:102400008B5A9D4F95012C193D092E153F0508F05B
:1024100024C30B3A31E0130728F4D50114966C91CC
:102420000E9416360F5F1F4FBFEFAB1ABB0AE7CFF4
:102430000E94333112C382E08A830FC30A811B8159
:10244000102701271027CC80D12CEDE1CE16D10426
:1024500008F003C39E012F5F3F4F59017901C80166
:10246000899697012A193B092C153D0508F0F5C2FC
:10247000083131E0130730F40E94F235D701149689
:102480008C9302C0F70114820F5F1F4FFFEFEF1A0A
:10249000FF0AE5CF0A811B81102701271027CC8076
:1024A000D12C2DE1C216D10408F0D7C2380139E28F
:1024B000630E711C083141E0140708F0CEC288E1B8
:1024C00091E0801B910B8C159D0508F4C6C280918C
:1024D000330590913405DE0111965D01892B11F0D1
:1024E00075015EC000FF0FC0C80188960E94F235DA
:1024F00090E0982F88272D81822B81159C4731F4FD
:102500008FEF8D8303C0E12CF12C03C0EE24E39404
:10251000F12CC601800F911F460180FF1BC0E1E036
:102520008E1A910855E0252E312C2C0E3D1E280CBC
:10253000391CC3018C0D9D1D0E94F235D1012C91D7
:1025400030E0322F2227282B21153C4719F48FEF3A
:10255000F1018083F501EE0DFF1D2FEFCF018A19E8
:102560009B098815990508F0BBCF848190E0982FCE
:1025700088273581832B81159C4711F4248325837B
:102580003296ECCF083141E0140728F4D7011496B5
:102590006C910E9416360F5F1F4FBFEFEB1AFB0ABC
:1025A000C801899697012A193B092C153D0550F35E
:1025B00054C28091330590913405892B09F44DC2A2
:1025C00040E250E0BE016F5F7F4F82E00E94CC2D61
:1025D000EFEFF1EE24E0E150F0402040E1F700C0E1
:1025E00000000E940A2E39C2EA818E2F90E08E30C0
:1025F000910508F032C2FC01E056FF4F0C949C3666
:1026000088E0E2E1F1E0DE01919601900D928A9579
:10261000E1F7FE01319680E2DF011D928A95E9F72C
:1026200086E0898388E0B096DE011596EAC180E2F3
:10263000898381E08A831B821C820FC28C8190E097
:10264000982F88272B81820F911D092E000CAA0B31
:10265000BB0B35E0880F991FAA1FBB1F3A95D1F716
:10266000AC01BD01405E5F4F6F4F7F4F4817590768
:102670006A077B0708F4F1C18032E1E09E07A105FB
:10268000B10508F0EAC14132F1E05F07610571056B
:1026900020F040E251E060E070E0481B590BBC01C3
:1026A00060587E4FCE0101960E94D935D6C140E2D6
:1026B00050E06FEF70E0CE0101960E946B37809181
:1026C00033058983EA821B821C821D8281E0EBC173
:1026D00081E090E09093B3018093B20182E390E0B7
:1026E0009093A7018093A6010E946F2E9093A5015D
:1026F0008093A401B2C1EF28B9F18091A801909113
:10270000A9019C01369527958170182F122380917D
:10271000A4019091A5010E94542E85369105F0F0F8
:102720001123E1F00E946F2E9093A5018093A401E4
:102730008091A6019091A70101979093A7018093A2
:10274000A601892B89F41092B3011092B20181E0A5
:1027500090E0909334058093330506C082E390E0C7
:102760009093A7018093A60180913305898380917E
:10277000B2018A838091A601A0C010923405109204
:1027800033056BC10B811C8140E250E06FEF70E0BC
:10279000CE0101960E946B372AED34E0AAE6B5E03F
:1027A00080E090E0AC014E5F5F4F4132510508F090
:1027B00054C1F901659174910617170748F4E1E0D7
:1027C000F0E0EC0FFD1FE80FF91F71836083CA0171
:1027D000245F3F4FA217B30729F73FC12B813C81EC
:1027E0008AED94E0FC01459154912417350731F0AE
:1027F0000C9645E08A369407A9F72DC1009709F495
:102800002AC1FC013696259134912115310509F430
:1028100022C14FE150E0BE016E5F7F4FF901099583
:102820001BC12B813C818AE695E00AED14E0F8019A
:10283000459154912417350731F0045F1F4F8017DD
:102840009107A9F708C10115110509F404C1F801A0
:102850003896259134912115310509F4FCC04CE1DD
:1028600050E0BE016B5F7F4FC801F90109950097E9
:1028700009F0F2C0F8013A9685919491009711F011
:10288000FC01099580E0E8C00E943929E6C0EB818F
:102890008E2F90E08730910508F0DFC0FC01E255F3
:1028A000FF4F0C949C36FE01319680E2DF011D92B1
:1028B0008A95E9F788E089838A838B83CEC08C81EF
:1028C0001AE07E01B1E2EB0EF11CF701212F11920B
:1028D0002A95E9F7B7010E94EA318983F701DE0101
:1028E000129601900D921A95E1F7B7C01C818AE00B
:1028F000FE013596DE01919601900D928A95E1F7E1
:1029000089A19AA10E94E32B9AA389A38BA19CA1E0
:102910000E94E32B9CA38BA38DA19EA10E94E32B7D
:102920009EA38DA38FA198A50E94E32B98A78FA3A8
:10293000183070F43AE0139FB00111246B597E4FA8
:102940004AE050E0CE0181960E943A3680E001C014
:102950008FEF89830E94452A80C06C81CE018196C9
:102960002AE0DC011D922A95E9F7683008F042C0A0
:10297000BAE06B9FB00111246B547E4F35C01C81AF
:102980008AE0FE013596DE01919601900D928A95BE
:10299000E1F789A59AA50E94E32B9AA789A7183089
:1029A00070F4EAE01E9FB00111246B547E4F4AE0A0
:1029B00050E0CE0181960E943A3680E001C08FEF50
:1029C00089830E94E32949C06C81CE0181962AE067
:1029D000DC011D922A95E9F7683060F4BAE06B9F3C
:1029E000B00111246B5F7D4F4AE050E00E94E23558
:1029F00080E001C08FEF89838AE0FE01B196DE019D
:102A0000129601900D928A95E1F727C01C818AE009
:102A1000FE013596DE01919601900D928A95E1F7BF
:102A20008BA19CA10E94E32B9CA38BA3183070F474
:102A3000EAE01E9FB00111246B5F7D4F4AE050E039
:102A4000CE0181960E943A3680E001C08FEF8983E3
:102A50000E946F2902C08FEF898340E250E0BE01DF
:102A60006F5F7F4F82E00E94CC2D71C909BD19BDF7
:102A700009B400FEFDCF8091D8008F7D8093D800EF
:102A80008091E00082608093E0008091E00081FD11
:102A9000FCCF0E94E92362C988E290E00E94F235EF
:102AA0001B821C821D828E83D8CF8091C30187FF39
:102AB00011C08091E80082FD05C08091C1018111A3
:102AC000F8CF11C08091E8008B770BC08091C101D5
:102AD000882349F08091E80080FFF8CF8091E800DA
:102AE0008E778093E8000895982F973068F590933B
:102AF000E900981739F07091EC002091ED005091A9
:102B0000F00003C0242F762F50E021FD02C09F5F0C
:102B1000ECCF3091EB003E7F3093EB003091ED0035
:102B20003D7F3093ED003091EB0031603093EB004E
:102B30007093EC002093ED005093F0002091EE0094
:102B400027FDE5CF80E008958F708093E90081E054
:102B500008952091C9013091CA012617370748F01E
:102B60006115710539F42091E8002E772093E80073
:102B700001C0B901FC0120E06115710579F1809176
:102B8000C1018823F1F18530F1F18091E80083FDE6
:102B90003CC08091E80082FD2EC08091E80080FF5B
:102BA000EBCF2091F3008091F20090E0922B611521
:102BB000710551F08830910538F421912093F1008E
:102BC000615071090196F3CF21E0089709F020E0E8
:102BD0008091E8008E778093E800CECF2111CFCF8F
:102BE0000AC08091C101882361F0853061F0809135
:102BF000E80083FD0AC08091E80082FFF2CF80E008
:102C0000089582E0089583E0089581E0089508958D
:102C100043E050E0BC0184E00E94CC2D089540E2E6
:102C200050E0BC0184E00E94CC2D0895CF93DF9347
:102C3000EC0148E050E0BC0181E00E94CC2D88E02E
:102C4000FE01A7EBB1E001900D928A95E1F7DF91CB
:102C5000CF910895A0E0B0E0E0E3F6E10C94E23615
:102C6000EC018AE0A82E2881222309F49AC02130A1
:102C700009F041C08981813039F48E010E5F1F4F08
:102C80008A810E94282508C0823041F48E010E5F9F
:102C90001F4F8A810E94C124E80181C0833039F42A
:102CA0008E010E5F1F4F8A810E949724F5CF8430DA
:102CB00011F0219674C02A81229680E090E030E0E5
:102CC000205331092A30310558F4A89EA001A99E4D
:102CD000500D1124C901840F951F21962881EFCF33
:102CE000009709F45CC0EFE9FFE03197F1F700C00D
:102CF00000000197F5CFE22FF0E0E65AFB4FB490C9
:102D0000822F86958695869590E0FC01E65BFB4FC9
:102D1000E4902770F12C022E02C0F594E7940A94F7
:102D2000E2F7F1E0EF22FF24FC01E65CFB4FC490E8
:102D3000D12C022E02C0D594C7940A94E2F731E058
:102D4000C322DD24FC01E65DFB4F049110E002C0CC
:102D5000159507952A95E2F701701127E114F10402
:102D600019F081EE0E94C124C114D10419F086EE3D
:102D70000E94C1248B2D0E942825C114D10419F072
:102D800086EE0E949724E114F10419F081EE0E946E
:102D900097240115110519F08CE20E94282521962F
:102DA00062CFCDB7DEB7EAE00C94FE36AAE2B0E01F
:102DB000ECEDF6E10C94E936E3ECF1E08BEC91E01C
:102DC0002091F10021938E179F07D1F78091C401C4
:102DD000833009F463C030F4813071F0823009F43B
:102DE0009DC0B4C08A3009F489C08B3009F46EC02C
:102DF000893009F0ABC020C08091C301813A09F04D
:102E0000A5C08091E800877F8093E8008091C7018A
:102E10009091C801892B21F468E087EB91E003C011
:102E200060E080E090E070E00E94A9158091E800E9
:102E30008B778093E8008AC08091C301813209F0CA
:102E400085C08091C7019091C801009719F0029741
:102E500009F07CC08091E800877F8093E800809132
:102E6000E80082FD05C08091C1018111F8CF6EC0DC
:102E70002091F3008091F20090E0922B029731F4C0
:102E80008091F100813011F0863021F48091F100C1
:102E90008093B6018091E8008B7754C08091C30184
:102EA000813A09F053C08091C7019091C801892BE4
:102EB00009F04CC08091E800877F8093E800809102
:102EC000E80080FFFCCF80910B0137C08091C301E7
:102ED0008132E1F58091C7019091C801892BB1F54C
:102EE0008091E800877F8093E8000E9455158091CB
:102EF000C50180930B010E94E92328C08091C30182
:102F0000813221F58091E800877F8093E8000E945C
:102F100055158091C6018093B50118C08091C301F9
:102F2000813AA1F48091E800877F8093E800809146
:102F3000E80080FFFCCF8091B5018093F100809183
:102F4000E8008E778093E8000E9455158091E80094
:102F500083FFEBC18091C3019091C401492F50E0E0
:102F60004A30510508F0E1C1FA01EB54FF4F0C94CF
:102F70009C36803821F0823809F0D7C108C0809192
:102F8000BF019091C001992389F082600FC08091A8
:102F9000C7018F70873008F0C8C18093E900809125
:102FA000EB0085FB882780F91092E9009091E800FA
:102FB000977F9093E8008093F1001092F1007CC11C
:102FC000282F2D7F09F0B1C1882319F0823061F0DC
:102FD000ACC18091C501813009F0A7C1933009F0DF
:102FE00080E08093C0012EC08091C50181112AC06C
:102FF0008091C7018F702FEF280F263008F095C100
:103000008093E9002091EB0020FF1CC0933021F455
:103010008091EB00806214C09091EB0090619093DE
:10302000EB0021E030E0A90102C0440F551F8A9552
:10303000E2F74093EA001092EA008091EB0088608A
:103040008093EB001092E9008091E800877F8093E5
:10305000E8000E94551569C1811167C11091C50131
:103060001F778091E3008078812B8093E30080912B
:10307000E800877F8093E8000E9455158091E80062
:1030800080FFFCCF8091E30080688093E300111102
:1030900002C082E001C083E08093C10146C1805834
:1030A000823008F042C12091C5013091C6012C3D0B
:1030B00053E0350779F583E08A838AE289834FB745
:1030C000F894DE01139620E03EE051E2E32FF0E0B9
:1030D00050935700E49120FF03C0E295EF703F5FEB
:1030E000EF708E2F90E0EA3010F0C79601C0C096C6
:1030F0008D939D932F5F243149F74FBF8091E80056
:10310000877F8093E8006AE270E0CE0101960E941A
:10311000A915C0C08091C7019091C801432F5527C0
:1031200043305105B1F068F44130510509F40CC148
:103130004230510509F0F9C08BE590E0E3E7F3E098
:1031400057C04132510589F14232510509F43CC062
:10315000ECC0C901992781309105B9F070F0823037
:103160009105D9F0039709F0E0C0E0EEF3E0E491B7
:103170008E2F90E0E0EEF3E038C0E6E2F4E0E49178
:103180008E2F90E0E6E2F4E030C0E2E1F4E0E4917A
:103190008E2F90E0E2E1F4E028C0EEEFF3E0E4915E
:1031A0008E2F90E0EEEFF3E020C08330910508F021
:1031B000BCC0880F991FFC01EA5CFE4F0190F081B2
:1031C000E02D89E090E014C08330910508F0ADC097
:1031D000FC01EE0FFF1FE05DFE4F0190F081E02D3E
:1031E000DC01A35DBE4F8C9190E0009709F49DC077
:1031F0002091E800277F2093E8002091C9013091B9
:10320000CA012817390708F4C90140E0009789F17D
:103210002091C101222309F43DC02530D9F120912C
:10322000E80023FD37C02091E80022FD2FC0209147
:10323000E80020FFEBCF4091F3002091F20030E056
:10324000342B009759F02830310540F444914093D5
:10325000F100319601972F5F3F4FF3CF41E02830C7
:10326000310509F040E02091E8002E772093E80036
:10327000CDCF4111CDCF0AC08091C101882351F03B
:10328000853041F08091E80083FD04C08091E80022
:1032900082FFF2CF8091E8008B778093E80045C0F1
:1032A000803809F042C08091E800877F8093E80071
:1032B0008091C2018093F1008091E8008E77C7CEA3
:1032C000811133C08091C5019091C6019927029761
:1032D00064F58091E800877F8093E8001091C50134
:1032E0001093C2010E945515111106C08091E30090
:1032F00087FD02C081E001C084E08093C10142E00B
:1033000061EC81E00E94741542E261EC84E00E946D
:10331000741542E261EC82E00E94741542E260ECB6
:1033200083E00E9474158091C1018091E80083FFC1
:1033300010C08091E800877F8093E8008091EB00C7
:1033400080628093EB0005C082E190E0EEECF3E058
:103350004FCFAA96E3E00C9405371F920F920FB659
:103360000F9211242F933F934F935F936F937F930B
:103370008F939F93AF93BF93CF93DF93EF93FF937D
:10338000C091E900CF708091EC00D82FD17080FD02
:10339000D0E81092E9008091F000877F8093F000E0
:1033A00078940E94D6161092E9008091F00088600F
:1033B0008093F000CD2BCF70C093E900FF91EF9187
:1033C000DF91CF91BF91AF919F918F917F916F913D
:1033D0005F914F913F912F910F900FBE0F901F90D3
:1033E0001895E8EDF0E080818E7F80831092E200F6
:1033F0001092DA001092E100A0EEB0E08C918160B2
:103400008C9380818F77808319BCA7EDB0E08C917D
:103410008E7F8C9380818F7E80831092B40108957B
:10342000A0E0B0E0E6E1FAE10C94E436C8EDD0E0CB
:1034300088818F7E8883E7EDF0E0808181608083E2
:1034400084E082BF81E08093B40188818E7F88838D
:1034500002EE10E0F80110821092DA0081EEC82E20
:10346000D12CF601108288818F77888388818068CB
:10347000888388818F7D888319BC1092C101109246
:10348000C2011092C0011092BF0190EEE92EF12C02
:10349000F70180818B7F808388818160888342E00F
:1034A00060E080E00E947415F60180818E7F808349
:1034B000F801808181608083808188608083F7014A
:1034C00080818E7F8083888180618883CDB7DEB7DD
:1034D000E8E00C9400371F920F920FB60F92112460
:1034E0002F933F934F935F936F937F938F939F930C
:1034F000AF93BF93EF93FF938091E10082FF09C0E8
:103500008091E20082FF05C08091E1008B7F809373
:10351000E1008091DA0080FF2AC08091D80080FF0E
:1035200026C08091DA008E7F8093DA008091D900E6
:1035300080FF18C080E189BD82E189BD09B400FE29
:10354000FDCF81E08093C1018091B40181110FC052
:103550000E94F1190E94101A8091E2008460809309
:10356000E20005C019BC1092C1011092B401809113
:10357000E10080FF17C08091E20080FF13C08091BE
:10358000E2008E7F8093E2008091E2008061809370
:10359000E2008091D80080628093D80019BC85E059
:1035A0008093C1018091E10084FF30C08091E200EE
:1035B00084FF2CC080E189BD82E189BD09B400FE91
:1035C000FDCF8091D8008F7D8093D8008091E1005D
:1035D0008F7E8093E1008091E2008F7E8093E200F5
:1035E0008091E20081608093E2008091C201882393
:1035F00011F084E007C08091E30087FD02C081E004
:1036000001C083E08093C1018091C1018091E100FC
:1036100083FF27C08091E20083FF23C08091E100F7
:10362000877F8093E10082E08093C1011092C20104
:103630008091E1008E7F8093E1008091E2008E7F97
:103640008093E2008091E20080618093E20042E09A
:1036500060E080E00E9474158091F00088608093A3
:10366000F000FF91EF91BF91AF919F918F917F916A
:103670006F915F914F913F912F910F900FBE0F90DF
:103680001F9018952091E4003091E50095E6409157
:10369000EC00842F817040FF23C08091E80080FD02
:1036A0001DC08091C101882399F0853099F08091E7
:1036B000EB0085FD11C04091E4005091E500241716
:1036C000350729F3915011F09A01E1CF84E0089574
:1036D00082E0089583E0089581E0089580E00895F0
:1036E0004091E80042FFDDCF089580E00895909179
:1036F000540592FF10C041E0282F2471243009F0B6
:1037000040E031E0282F2871283009F030E04317DD
:1037100011F02CE0822793FF10C041E0282F247184
:10372000243109F040E031E0282F2871283109F0D8
:1037300030E0431711F02CE082273091550530FF1F
:1037400010C051E0282F2171213009F050E041E0F4
:10375000282F2871283009F040E0541711F029E093
:10376000822731FF10C041E0282F2171213109F05B
:1037700040E031E0282F2871283109F030E043176C
:1037800011F029E0822794FD877E08958238910503
:1037900069F1B0F48133910509F475C048F48932B8
:1037A000910509F467C08A32910509F471C0089542
:1037B0008533910509F459C089339105B9F008950D
:1037C000833E910589F138F4803E9105D1F0823E27
:1037D000910529F10895863E9105C9F1873E91052D
:1037E000D9F1843E910509F06CC027C020915405A1
:1037F00020FD57C021FD55C02091550523FD5BC01C
:1038000008958091540580FD48C08091550580FF42
:1038100048C08091540584FD46C083EE51C080911C
:10382000540582FF3CC0F5CF8091540582FD37C01E
:103830008091550580FD35C0ECCF8091550581FF05
:1038400036C08091540584FD2EC087EE39C080912A
:10385000540583FF2AC0F5CF8091540583FD25C010
:103860008091550581FD23C0ECCF8091540585FDE5
:1038700022C01FC08091540585FD1BC08091550555
:1038800083FF19C00AC08091540586FD16C017C079
:103890008091540586FD13C010C089E311C082EEEB
:1038A0000FC080EE0DC080E00BC086EE09C084EE34
:1038B00007C085E305C089E203C08AE201C081E355
:1038C00090E00895F894E82FE295EF70F0E031A1D0
:1038D000282F2F7081E090E001C0880F2A95EAF729
:1038E000982F9095932391A392A1892B82A37894EA
:1038F0000895AAE0B0E0EFE7FCE10C94DE36AE01FB
:103900004F5F5F4F7A018AE0FA0111928A95E9F7D9
:103910000AE111E06A019FE1692E91E0792E882485
:103920008394912CF80180818F3F09F447C0F8946B
:10393000E82FE295EF70F0E021A18F70A40102C0A2
:10394000440F551F8A95E2F7CA01922F982B91A335
:1039500092A18095892382A3789400C0EFE1F1E0E1
:1039600021E030E0A12CB12C41914F3F89F0A42FF0
:10397000A295AF70B0E090968C9190E04F7002C02D
:10398000959587954A95E2F780FD02C0C90102C06E
:1039900080E090E0A82AB92A220F331F51E0ED32CF
:1039A000F50711F7F80180818F3F11F00E94621C2A
:1039B000F0EAFA95F1F7F601B182A0820F5F1F4F8E
:1039C000F2E0CF0ED11C6016710609F0ABCF4AE0D1
:1039D00050E0B70181E891E00E945537892B91F0C2
:1039E0008AE0F701A1E8B1E001900D928A95E1F734
:1039F00081E0809352020E946F2E90935102809337
:103A000050020CC080915202882341F080915002F4
:103A1000909151020E94542E059710F480E018C036
:103A20004AE050E061E871E088EA91E00E94553791
:103A3000892B59F08AE0E1E8F1E0A8EAB1E00190D1
:103A40000D928A95E1F781E001C080E01092520268
:103A50002A96EEE00C94FA362091B2013091B3012F
:103A6000232BA1F4703F39F4603F81F48091F70477
:103A70009091F8040895753048F46E3038F482302F
:103A800028F4462F672F0E94C626089580E090E014
:103A900008951F93CF93DF930E94C61BEC01C115BD
:103AA00080E5D807E8F5C11590E4D90708F0A8C06B
:103AB000C03ED10530F5CD3CD10508F094C0C83AE0
:103AC000D10578F4C53AD10508F083C0C130D105DD
:103AD00009F47CC008F4F2C0C430D10508F0F1C08C
:103AE000EDC0C33CD10508F0E9C0C85AD0E0CC0F06
:103AF000DD1FC15CDE4F0990D881C02DCE019464DA
:103B0000E1C0C11580E2D80708F0CBC0C11591E033
:103B1000D90708F06BC0C83ED10508F4D2C0CEC0AA
:103B2000C03682E5D80728F5C03492E5D90708F0F9
:103B300079C0C03282E5D80708F06CC0C11592E5A3
:103B4000D90708F481C04C2F4695469580E2489FDE
:103B5000A0011124C37021E030E0C90102C0880F28
:103B6000991FCA95E2F7EA01C82BD92BCE019D68AF
:103B7000A9C0C03A82E5D807B8F48C2F8F71C0383D
:103B800092E5D90708F07BC08695869590E2899FDB
:103B900090011124C37081E090E002C0880F991F4A
:103BA000CA95E2F79A6868C0C03C82E5D80708F475
:103BB0006DC0C03E92E5D90708F080C0CF71DD2707
:103BC000DC2FCC27CE01806F906A7CC081E090E032
:103BD00079C0C55AD0E0C45CDE4F8881C82FD0E0E0
:103BE000CE0190646FC0CE0190656CC08D2F0E9495
:103BF000771B182FCE0199270E94C61B1F715CC02E
:103C0000CE0199270E94C61BCC27DF70D06A8C2B6F
:103C10009D2B58C0CF71D0E0DC2FCC27CE01816F17
:103C2000906A50C08C2F8F718695869590E2899FFF
:103C300090011124C37081E090E002C0880F991FA9
:103C4000CA95E2F79C6818C08C2F8F710E94771B71
:103C500095E0D695C7959A95E1F7CF70D0E0DC2F27
:103C6000CC27282F30E084FF05C084E0220F331FCB
:103C70008A95E1F7D069CE01822B932B23C090E087
:103C8000D82FCC27CE01846F906A1CC08C2F8F71E7
:103C90000E94771B8F7190E0D82FCC27CE019062C5
:103CA00011C08D2F8F710E94771B182FCE0199277D
:103CB0000E94C61B1F719062912B04C080E090E0AF
:103CC00001C0CE01DF91CF911F910895A6E0B0E031
:103CD000ECE6FEE10C94E8360E946F2E8C01809198
:103CE0004E0290914F020817190781F019821A822B
:103CF0000E946F2E682F49815A81792F80E090E0D1
:103D00000E94333210934F0200934E022696E4E055
:103D10000C94043780E090E00E940036863E9E4F6F
:103D200019F40E94842F089580E00895A8E0B0E07F
:103D3000ECE9FEE10C94EA3666EE7EEF80E090E07E
:103D40000E94343660E082E090E00E94163681E006
:103D500080934D0261E083E090E00E94163660E0BF
:103D600074E184E090E00E94343660E086E090E008
:103D70000E9416366FEF87E090E00E94163640E012
:103D800050E0BA0188E090E00E94283660E084E2CA
:103D900090E00E94163660E087E190E00E941636BF
:103DA00060E08CE090E00E94163660E08DE090E0EC
:103DB0000E94163619821A821B821C821D821E8264
:103DC0001F82188648E050E068E170E0CE0101965D
:103DD0000E94063640E050E0BA0180E290E00E9486
:103DE000283680E00E94652F0E94DA3140E050E0E2
:103DF000BA018FE090E00E94283640E050E0BA011E
:103E000083E190E00E9428362896E2E00C94063781
:103E100080914C02882331F010924C0210924B0298
:103E200010924A020895CF939091550592FF0DC0CC
:103E300090914C02981749F0C82F0E946F2E9093D2
:103E40004B0280934A02C0934C02CF910895909107
:103E50004C02292F282379F08095892380934C02E6
:103E6000882319F00E946F2E02C080E090E09093AA
:103E70004B0280934A020895809590914B058923C7
:103E800080934B05089580959091C9038923809371
:103E9000C90308959091C903892B8093C90308959C
:103EA000109221021092200210921F020895909108
:103EB00021028095892380932102282F277069F49D
:103EC000981759F09091550592FF07C086958695F1
:103ED00086950E94A5210E94501F08959091550536
:103EE00092FB222720F9281779F080FB92F9909312
:103EF0005505609154057091550584E090E00E944D
:103F0000343682E00E94571F08959091550592FF24
:103F100010C098E0899F90011124262B2093210244
:103F20000E94B2210E946F2E9093200280931F0264
:103F300008950E94B22108958091EC039091ED03C1
:103F4000892B89F00E946F2E20914A0230914B02FA
:103F5000AC01421B530B81E02091EC033091ED0347
:103F60004217530708F480E081700895CF93C09101
:103F7000C90380914B05C82B80914C02882349F1DD
:103F80008091EC039091ED03892B29F00E949C1FF6
:103F900081110E94081F80914C02C82B80910B0157
:103FA000882341F08091540587FF04C02EE185E10C
:103FB00095E003C026E08DE095E0FC0180E0215013
:103FC00028F091919923D9F38F5FF9CF81110E9445
:103FD000081F809141058095C823809142058C2B54
:103FE000CF91089580910B01882351F18091540560
:103FF00087FF26C00E94B61F8093140540E250E060
:1040000062E272E083E195E00E945537892BD9F195
:1040100080E2E3E1F5E0A2E2B2E001900D928A9540
:10402000E1F7E0915005F0915105309761F186E09C
:10403000809313050480F581E02D83E195E022C093
:104040000E94B61F80930B0548E050E062E472E0E6
:104050008BE095E00E945537892BA9F088E0EBE0D2
:10406000F5E0A2E4B2E001900D928A95E1F7E091CB
:104070005005F0915105309731F00280F381E02D29
:104080008BE095E00995089590911E02292F282331
:1040900021F08095982390931E02089520911D028F
:1040A0009091D40159E02917A9F030E0529FF00116
:1040B000539FF00D1124EB52FE4F7181761306C011
:1040C0007081781303C07581741306C02F5F3F4F52
:1040D0002770E9CF80E0089581E0089580911D0266
:1040E0009091D401891719F08F5F8770FBCF0895E5
:1040F000A0E0B0E0EEE7F0E20C94E5368091D1016B
:1041000082958F7009F052C08091D001882309F404
:104110004DC0C0911D0289E0D82E8091D401C817EE
:1041200009F444C0D0E0DC9E8001DD9E100D112416
:10413000F801EB52FE4F84818823A9F1918180918F
:10414000CC01981330C090818091CB0198132BC083
:104150008581811128C0E280F3808091CD0190910A
:10416000CE01E81AF90A60E08BEC91E00E9424325B
:104170006BEC71E00E94272AE816F906A0F4809102
:10418000D1018F7080618093D101F801E552FE4F1B
:1041900080818F70806180838BEC91E00E94B503F9
:1041A0000E946E2003C02196C770B7CFCDB7DEB78F
:1041B000E7E00C940137CF92DF92FF920F931F93A9
:1041C000CF93DF936C0100918B0180914D02082BFE
:1041D000C1E0D0E010E0C8010C2E02C09595879593
:1041E0000A94E2F780FD04C02197A8F7F12C09C0DA
:1041F000FC2EB6018C2F0E942C1D0E94491D019798
:1042000099F38F2DDF91CF911F910F91FF90DF9048
:10421000CF900895CF93DF93EC010E94DB20BE0185
:104220000E942C1D0E94491DDF91CF910895292FD6
:10423000953078F58E3068F590E03EE0239F800D54
:10424000911D1124682F677023E0969587952A9514
:10425000E1F7FC01EE0FFF1FE80FF91FED5AFD4FCC
:1042600040E050E080E0219130E0062E02C036951B
:1042700027950A94E2F721703327042E01C0220FFC
:104280000A94EAF7822B4F5F5F4F4330510559F78D
:10429000089580E00895292F953088F58E3078F5BF
:1042A00090E03EE0239F800D911D1124282F277060
:1042B00051E001C0550F2A95EAF723E096958795BE
:1042C0002A95E1F7FC01EE0FFF1FE80FF91FED5AE9
:1042D000FD4F20E030E070E04081CB01022E02C0B3
:1042E000969587950A94E2F78170819584278523B6
:1042F000842781932F5F3F4F2330310569F708955D
:1043000080938B01089590918B0121E030E0F901B9
:1043100001C0EE0F8A95EAF7D90102C0AA0FBB1FB0
:104320006A95E2F7BD016E2B01C0220F4A95EAF7AC
:10433000892F8623681303C0892F822B03C0209501
:10434000822F89230E948021089521E030E001C05E
:10435000220F8A95EAF7209580918B0182230E9493
:104360008021089521E030E001C0220F8A95EAF70C
:1043700080918B01822B0E948021089580934D02B1
:10438000089592959F70963079F010F4925001C084
:104390009A50923068F4803F69F018F4883E40F4F7
:1043A00009C0843F29F406C0883E20F0813F11F007
:1043B00080E0089581E00895FC012481222371F0BA
:1043C00087819085009719F00E94491D04C0808163
:1043D00091810E940A210E94C121089580E00895E0
:1043E000A8E1B0E0E6EFF1E20C94DD368C0186E066
:1043F000F801DE01539601900D928A95E1F7D801FC
:1044000014967C9014971596EC908BECA82E81E076
:10441000B82E8091CF01811122C0772009F45BC0B2
:10442000EE2009F455C0C8010E94DC21F82E882333
:1044300009F44EC089E0F801ABECB1E001900D92B7
:104440008A95E1F78091CF01813031F48091CB01E1
:104450009091CC010E940A210E947820B5C1F801F8
:1044600050806180C280D38060E08BEC91E00E943C
:104470002432F090D0018091CD019091CE0146017F
:10448000881A990A60E08BEC91E0FF2009F431C1B1
:104490000E9424326BEC71E00E94272A881699064C
:1044A00008F0CCC07720B9F08091D101382F307F4F
:1044B0002091CC01D80111969C911197332371F072
:1044C000291709F47AC0C8010E94DC21811189C032
:1044D000C8010E94B503FF24F39476C129131FC0BD
:1044E0002091CB019C9129131AC04091D201509187
:1044F000D30117962D913C9118974217530779F4E1
:10450000E1100DC08F7080618093D1018BEC91E040
:104510000E94B5038091D101F80186839DC0E1100E
:104520003AC040E0662D852D0E944E20E82E88235B
:1045300029F08091070480FF8FC036C05B8A6C8AA7
:104540008B899C890E940A21292F22952F70243063
:1045500020F49F70223028F009C02A50223080F0C9
:1045600014C0992349F0811107C013C0992321F089
:10457000F8019681907F69F0805E883030F409C040
:10458000803F38F0815F833020F0C8010E94B5037E
:10459000EF2CFE2C19C18091D10181608093D10153
:1045A0008091070481FD58C08BEC91E00E94B50317
:1045B000EBECF1E089E0DF014CC02091CB01F80188
:1045C0009081291380CF4091D2015091D30127814E
:1045D00030854217530709F076CFE11074CF8683F8
:1045E000D4C0EE2009F474CF2091D101822F82959E
:1045F0008F7090E00297BCF08091CB019091CC013C
:104600009B878A87DD86CC868091CF018E871F8627
:10461000288B8091D2019091D3019A8B898BCE0106
:104620000A960E94B50389E0F801ABECB1E0019075
:104630000D928A95E1F70E9478204DCF8091D101AB
:10464000982F907F59F48BEC91E00E94B50389E09C
:10465000D5011D928A95E9F7F12CB6C0772009F4AF
:104660003ACF2091CC01F801918129131AC02091F1
:10467000CB019081291315C04091D2015091D301F3
:10468000278130854217530761F4E1100AC0868301
:10469000C8010E94B50389E0D5011D928A95E9F70A
:1046A00093C0C8010E94DC21882309F411CFEE20B9
:1046B00009F40ECF2091D101822F82958F7090E066
:1046C00002970CF4B0CF8091CB019091CC019A83EA
:1046D0008983DC82CB828091CF018D831E822F83E0
:1046E0008091D2019091D30199878887CE0101965C
:1046F00098CF0E9424326BEC71E00E94272A881622
:10470000990608F05CC0772009F4E5CEFE2CEE2077
:1047100009F4DECE9091CC01F8018181981341C05B
:104720009091CB01808198133CC02091D2013091AF
:10473000D301878190852817390799F58091CD019C
:104740009091CE01C81AD90AF8ECCF16D10400F521
:104750008091D10180FD1CC082958F70482F50E060
:1047600041155105A9F02091D101D80116962C933D
:1047700016974F30510549F08F5F982F9295907F93
:10478000822F8F70892B16968C93C8010E94B503D7
:1047900089E0F801ABECB1E001900D928A95E1F768
:1047A00013C0C8010E94DC2181113DCF8091D1014D
:1047B00081608093D101C8010E94B50305C089E0E2
:1047C000F50111928A95E9F78F2D6896EFE00C9428
:1047D000F9361092C90380910B01882341F0809132
:1047E000540587FF04C08EE1E5E1F5E003C086E0F3
:1047F000EDE0F5E0DF011D928A95E9F780E090E0B9
:104800000E942E2F80E090E00E94092F10924B050D
:104810000E94F21F0895A2E1B0E0E1E1F4E20C94FD
:10482000E8360A871B872C873D874E875F87688B12
:10483000798B8A8BCE010A960E94F02181113BC0B0
:1048400089E0FE013A96DE01119601900D928A955B
:10485000E1F76E85662379F12091D40130E0C9013A
:1048600001968770992740911D0250E084179507A3
:10487000A1F06D8399E0929FD001939FB00D112418
:10488000AB52BE4FFE01319601900D929A95E1F721
:104890008093D4010E946E200EC00E94E9231092E2
:1048A000D40110921D02EBECF1E089E0DF011D92D2
:1048B0008A95E9F719C019E080911D029091D40101
:1048C000891791F0189FC00111248B529E4F0E94AE
:1048D000F021882349F080911D0290E001968770B5
:1048E000992780931D02E8CF6296E4E00C94043788
:1048F000882321F00E943C1F0E94F21F0895882304
:1049000039F090914B05892B80934B050E94F21F43
:104910000895882321F00E94431F0E94F21F0895EA
:10492000882321F00E944A1F0E94F21F08958823C5
:1049300039F19CEF980F913A18F40E94A42E0DC003
:1049400090E2980F983060F4877091E001C0990F61
:104950008A95EAF7892F0E94431F0E94F21F08954B
:104960009BE5980F933028F480E090E00E942E2F72
:104970000895885A8B3120F480E090E00E94092F3E
:104980000895CF93882309F461C0C82F8CEF8C0F52
:10499000813AA0F580910B018823E1F080915405C4
:1049A00087FF18C0EC2FE695E695E695F0E0ED5E02
:1049B000FA4F8281282F30E04C2F477081E090E041
:1049C00002C0880F991F4A95E2F782239323892B0F
:1049D00061F410C0EDE0F5E083E195E02191C217AC
:1049E00021F08E179F07D1F705C08C2F0E94A42EAF
:1049F0000E94F21F8C2F0E94D22E0CC080E28C0FDE
:104A0000883058F4C77081E001C0880FCA95EAF772
:104A10000E944A1F0E94F21F19C0EBE5EC0FE33021
:104A200040F4F0E0E45CFE4F808190E00E942E2F85
:104A30000DC0C85ACB3150F4EC2FF0E0EE0FFF1F41
:104A4000E15CFE4F808191810E94092FCF910895F2
:104A50001F93CF93DF93182F893329F4C0910A0451
:104A6000D0910B0404C0C0910804D0910904812F97
:104A70000E94C124209741F08FE99FE00197F1F750
:104A800000C000002197F6CF812F0E949724DF916C
:104A9000CF911F910895A0E0B0E0E1E5F5E20C941C
:104AA000E2364430510508F46CC04091540541FB96
:104AB000CC24C0F8D12CCC0CDD1C42FB882780F91B
:104AC000C82FE0E0DE2FCC0FDD1FCC0FDD1FCC2A7E
:104AD000DD2A40FBEE24E0F8F12CEC28FD2843FB16
:104AE000AA27A0F9B0E023E0AA0FBB1F2A95E1F79F
:104AF000EA2AFB2A44FBEE27E0F9F0E034E0EE0F6F
:104B0000FF1F3A95E1F7EE29FF2945FB222720F9FF
:104B100030E055E0220F331F5A95E1F72E2B3F2B43
:104B200046FB882780F990E0E6E0880F991FEA9518
:104B3000E1F7822B932B47FB442740F950E0569531
:104B4000542F442757954795842B952B2091550535
:104B5000322F3170132F00E0082B192B269521706E
:104B6000B22EBB0CA12C0A291B29012E000C220BF2
:104B7000330BFB01008311832283338380E090E0B9
:104B800002C08FEF9FEFCDB7DEB7EAE00C94FE36A0
:104B90008091EA039091EB0390930D0180930C01B7
:104BA00008950F931F93CF93DF930AEE13E0C1E4B0
:104BB000D1E0CE010E94F235F80161918F016817B2
:104BC00019F0CE010E9416362196C536F1E0DF07B6
:104BD00081F7DF91CF911F910F910895CF92DF92CE
:104BE000EF92FF924430510508F471C0FB01C08080
:104BF000D180E280F3800E94E92380915405C0FABD
:104C000080F9B701A601769567955795479540FBC2
:104C100081F9B701A60122E07695679557954795EA
:104C20002A95D1F740FB82F9B701A60133E07695CA
:104C30006795579547953A95D1F740FB83F9B701AA
:104C4000A601E4E07695679557954795EA95D1F7E3
:104C500040FB84F9B701A601F5E076956795579575
:104C60004795FA95D1F740FB85F9B701A601A6E073
:104C70007695679557954795AA95D1F740FB86F9A4
:104C8000B701A601B7E07695679557954795BA9510
:104C9000D1F740FB87F98093540580915505D0FAF0
:104CA00080F999E0F694E794D794C7949A95D1F750
:104CB000C0FA81F9809355056091540570915505AE
:104CC00084E090E00E94343680E090E002C08FEFF4
:104CD0009FEFFF90EF90DF90CF900895DA019C0155
:104CE0002E5F3F4FF90145915491F901259134917F
:104CF000A217B30758F0FC013496859194910E9455
:104D000062370E94D12580E090E008958FEF9FEFF9
:104D100008959C01CA01F901329645915491841776
:104D2000950750F0CB01F9013496659174910E947A
:104D3000623780E090E008958FEF9FEF08951F9312
:104D4000CF93DF93962F8230E8F46530D8F44E305D
:104D5000C8F4632F122FC42FD0E0CC0FDD1F2CE13D
:104D6000929FC00DD11D11249CE8899FC00DD11DBB
:104D70001124CE0189960E941636612FCE018A96A3
:104D80000E941636DF91CF911F9108950F931F93C4
:104D9000CF93DF93823008F56530F8F44E30E8F4B5
:104DA000C42FD0E0CC0FDD1F2CE1629FC00DD11DC0
:104DB00011243CE8839FC00DD11D1124CE0189969A
:104DC0000E94F23590E0182F0027CE018A960E94AB
:104DD000F2359801282BC90102C080E090E0DF91F4
:104DE000CF911F910F910895BC014091BE04809115
:104DF000BF04942F981729F1292F30E0F901EE0F05
:104E0000FF1FEA54FB4F0190F081E02DE617F707F2
:104E100099F487E0869FF001879FF00D1124EB5EE7
:104E2000FB4F81E0848394130CC02F5F3F4F2370AE
:104E300033272093BE0408952F5F3F4F922F937026
:104E4000D9CF0895EF92FF920F931F93CF93DF93E3
:104E500080914D048823D9F1C09114048DE0F82E7F
:104E600080914D04C81778F5EE24E394EC0EE0929F
:104E70001404D0E0FC9EF001FD9EF00D1124E25BD5
:104E8000FB4F84818823E9F087819085892B21F469
:104E900081859285019659F40081118122813381A7
:104EA000448155816681778180850E940B24FC9E18
:104EB000F001FD9EF00D1124E25BFB4F1482109275
:104EC0004B05CE2DCDCF10924D0410921404CDB7CA
:104ED000DEB7E6E00C94023710921304109212042D
:104EE000E5E1F4E08581811102C0148216823796D3
:104EF00084E0ED34F807B1F708951092C1041092E0
:104F0000C00410920F018091BF048093BE040E94E0
:104F10006C270E9422270895A0E0B0E0E2E9F7E2C2
:104F20000C94DB36C091BE0497E0992E01E010E0AE
:104F30002DE0322E34E0432E552453948091BF044B
:104F4000C81709F479C0D0E0FE01EE0FFF1FEA5444
:104F5000FB4F80819181989ED001999EB00D1124C4
:104F6000AB5EBB4F14962C911497211162C07090C8
:104F70004D04EEE4F4E020E030E0812C5D012715E3
:104F800008F055C0E384F484D501CD90DC906FEF38
:104F90007FEF612C462D50E0DA01AA0FBB1FAC0D4C
:104FA000BD1D0D90BC91A02D109731F0EA16FB06A7
:104FB00009F4BA016394EECF6F3FBFEF7B0799F11D
:104FC000D80102C0AA0FBB1F6A95E2F78A2AB8016E
:104FD000062C02C0660F771F0A94E2F7AB0141501E
:104FE0005109682D70E046175707E1F4329EF00131
:104FF000339EF00D1124E25BFB4F989ED001999EE9
:10500000B00D1124AB5EBB4F12962D913C911397BE
:105010003087278344821082118292878187159678
:105020005C9205C014822F5F3F4F3D96A8CF0E942F
:10503000F4262196C37082CF0E9422270E946C27FB
:10504000CDB7DEB7E1E10C94F73680910E01877F92
:1050500080930E0182E00E943C1F80910E0184FF2C
:1050600006C08F7E80930E0182E00E944A1F8091CD
:105070000E0185FF06C08F7D80930E0180E20E94A5
:105080004A1F0E94F21F0895662329F020914B05C4
:10509000226020934B059C0130522115304308F4C7
:1050A00099270E94CF340895009741F0EFE9FFE07F
:1050B0003197F1F700C000000197F6CF0895A0E006
:1050C000B0E0E5E6F8E20C94E2365C017B01C42E28
:1050D000890180910E0182FF88C0C0911004D09197
:1050E0001104CA15DB0521F0A114B10409F07DC03B
:1050F00080910E018B7F80930E0181FD11C0809104
:105100000E0490910F04A701481B590B81E02091D8
:105110000C0130910D014217530718F480E001C0D3
:1051200081E08170D82E80910E01D0FA81F98093B0
:105130000E01FE01FF2784E0F695E7958A95E1F7D9
:105140009E012F703327EE0FFF1FE653FC4F81E0C7
:1051500090E002C0880F991F2A95E2F7DD2029F020
:1051600020813181822B932B06C0809590952081E0
:10517000318182239323918380838091C90381FFAE
:1051800008C080910E01806180930E0182E00E9430
:10519000431F8091C90385FF08C080910E01806282
:1051A00080930E0180E20E94431FA8016D2DCE0165
:1051B0000E944428CC2031F08091050485FF02C074
:1051C00086FF2BC080910804909109040E94542806
:1051D00080911004909111049C01305221153043AC
:1051E00008F499270E94B53412C0C5019052811568
:1051F000904318F4C501992701C0C5010E94B53438
:105200008091100490911104A816B90611F40E941F
:105210002528F0920F04E0920E04CDB7DEB7EAE045
:105220000C94FE360F931F93CF93DF930AEE13E097
:10523000C1E4D1E0CE010E94F235F80181938F01E3
:105240002196C536F1E0DF07A9F7C0E0D0E0FE0106
:10525000EC51FB4F85919491009711F0FC01099559
:105260002C96C039D10599F7DF91CF911F910F91FD
:105270000895EAEEF3E0128E138E8FEA90E09183A8
:10528000808385E0848F28E833E13383228322E31F
:1052900030E0378B268B28EC30E0318F208F158E55
:1052A000178E168E20E530E031A320A382A30E9442
:1052B000D1250E94E9231092550510925405E5E589
:1052C000F5E080818460808360915405709155057C
:1052D00084E090E00E9434360E9412290895AAE0EA
:1052E000B0E0E5E7F9E20C94E03601E513E08FE386
:1052F000C82E83E0D82E95E0E92E92E0F92E2FE01B
:10530000922E3EE3A32E33E0B32E88248394F6013D
:10531000019311936F014AE050E0B701CE0101966D
:105320000E94E235F801892D11928A95E9F7898169
:105330009A81F801918380838F8182838D81838319
:1053400088858483898585838B819C8197838683E7
:1053500010868A8587FF03C01686158603C0F8016C
:10536000B686A58680FF02C0F801808681FF04C052
:10537000F80190859260908782FF04C0F8019085C3
:105380009460908783FF04C0F801908598609087AF
:1053900084FF04C0F80190859061908785FF04C068
:1053A000F801808580628087015F1F4FFAE0EF0E71
:1053B000F11C85E5E81682E0F80609F0A8CF2A96E8
:1053C000ECE00C94FC36AAE0B0E0E9EEF9E20C94D3
:1053D000E43680E5EEEEF2E0DF011D928A95E9F712
:1053E00088E3E5E1F4E0DF011D928A95E9F78EEEAE
:1053F000C82E82E0D82E7F0105EB11E0F701D182A3
:10540000C0824AE050E0B801CE0101960E94E23528
:1054100088E0FE013196D60101900D928A95E1F760
:1054200089859A85D70113969C938E931297BAE03B
:10543000CB0ED11CE7E0EE0EF11C065F1F4F0530CE
:10544000F2E01F07D9F62A96E8E00C940037AAE0AC
:10545000B0E0EDE2FAE20C94EA369C0137552F3FBA
:10546000310509F050F4BE016F5F7F4F0E94EA31B1
:10547000892B19F489859A8504C080910204909142
:1054800003042A96E2E00C940637EEE6F2E080E0B0
:1054900090E06CEB7BE242E45BE227EB3AE277835D
:1054A000668351874087338722879787868701964F
:1054B00070968830910599F7089508958091CE04EB
:1054C000882319F081508093CE042091CA04309132
:1054D000CB044091CC045091CD046091CE047091E6
:1054E000CF048091D0049091D1040E941435089586
:1054F0008091CE04833018F48F5F8093CE04209186
:10550000CA043091CB044091CC045091CD046091F9
:10551000CE047091CF048091D0049091D1040E9468
:1055200014350895A6E0B0E0E8E9FAE20C94EA3612
:105530009093F8048093F704811520E2920718F401
:105540000E94B53410C080EF89838A830E946F2E39
:105550008160682F9C838B8349815A817C8181E0A3
:1055600090E00E9433322696E2E00C9406370F93C7
:105570001F93CF93DF938C01EB0161E075E08C2FDB
:105580000E94EA31892B09F042C080910804909171
:1055900009040E945428DD27C750DB4F8881F80199
:1055A00012821882833079F048F4813041F18230E0
:1055B00071F5809103059091040509C0843051F084
:1055C0008530E9F024C0809105059091060500978B
:1055D000B1F01BC080910705909108050097A9F4D0
:1055E00020910105309102058091030590910405F9
:1055F0002115310541F0009741F4C90106C08091A1
:10560000010590910205009711F00E94922ADF9106
:10561000CF911F910F910895A6E0B0E0E2E1FBE287
:105620000C94EA369093F8048093F704811520E2F5
:10563000920718F40E94CF3410C080EF89838A83C8
:105640000E946F2E8160682F9C838B8349815A81D1
:105650007C8181E091E00E9433322696E2E00C9456
:105660000637CF93DF93EC010E940C2B8091080446
:10567000909109040E945428CE010E94922ADF9141
:10568000CF9108950F931F93CF93DF938C01EB017C
:1056900061E075E08C2F0E94EA31892B09F067C028
:1056A000DD27F8018281813039F4958192FD13C0A4
:1056B00090FF11C082E00FC0823041F4F801858173
:1056C00082FD06C080FD06C083E005C086E003C001
:1056D00085E001C084E0C750DB4F88838330B1F0A0
:1056E00028F4813071F0823031F041C08430A9F06B
:1056F000853079F13CC080910305909104050097B5
:10570000A1F5809101059091020520C080910505C9
:10571000909106050097E9F028C0809107059091C7
:105720000805009711F580910105909102050097F9
:1057300049F00E94312B8091030590910405009758
:1057400081F013C08091030590910405009779F0D2
:105750000CC08091010590910205009741F00E94D4
:10576000312B80910105909102050E940C2BDF9155
:10577000CF911F910F9108950F931F93CF93DF93B4
:105780008C01862F61E075E00E94EA31892BB1F42B
:10579000C0910105D0910205209781F0F801828126
:1057A000833039F4CE010E94312BCE010E94312B7F
:1057B00002C0843018F0CE010E94312BDF91CF91CE
:1057C0001F910F91089581152CE7920759F480914C
:1057D000330590913405892B19F480E090E0089509
:1057E00080E09CE70895882311F0FA0101C0FB01D5
:1057F000099508958091CA0480FF0AC0249A85B152
:105800008F7E95B190612FB7F894E2EDF4E00BC074
:10581000E2EDF4E0118210821282339634E0E63F2A
:10582000F307C1F7EBCF34E0E63FF30789F031919E
:1058300048E095B9000000C037FF85B9330F00007C
:1058400000C000C000C085B900C04A9591F7EBCFF9
:105850002FBF8FE594E00197F1F700C00000089595
:10586000A0E0B0E0E6E3FCE20C94E036EC014C8111
:10587000042F10E09801D8010E94B1369B01AC01C1
:105880000E94C7366B017C01E0E2F0E0E01BF10B07
:10589000A5E5B0E09B01AC010E94C7364B015C015D
:1058A0009F01DF010E94A9369B01AC010E94D23604
:1058B0009B01AC012C0D3D1D4E1D5F1DC501B401AA
:1058C0000E947A36822FF22E99E2921728F093E006
:1058D000299F900111240DC025E530E0281B3109D6
:1058E000C901880F991F280F391F37FF02C02F5F8A
:1058F0003F4F35952795122F109592EDC92E94E0C4
:10590000D92E00E085E5E82EEF1801FD02C08E2DAE
:1059100001C08F2D9601412F6091CC040E944D351E
:105920000F5F83E0C80ED11C0C3079F70E94FA2B70
:105930008C81811102C091E003C0803219F49FEF85
:105940009093110190911101890F8C83CDB7DEB72F
:10595000ECE00C94FC369091CA0490FF0CC0E2ED90
:10596000F4E0818360834283339694E0E63FF90755
:10597000C1F70E94FA2B0895A3E0B0E0E2ECFCE24C
:105980000C94E8368C018091F60481110AC09E01C6
:105990002F5F3F4F4FEF6FEF0E944D358A8180930D
:1059A000F604F8018481813051F028F0823061F4EE
:1059B0004091F6040AC08091F60440E007C060916F
:1059C000F60440E080E003C040E080E060E00E9438
:1059D000AB2CF801848190E0019663E070E00E94B6
:1059E000663684832396E4E00C940437A3E0B0E0A9
:1059F000ECEFFCE20C94E6369091CA0490FF31C0C3
:105A0000E22E142F062FF82EE92FE695E695F0E00A
:105A1000EB58FE4F80818093C8049C7F943059F4EA
:105A20009E012F5F3F4F8F2D0E944D354B81698125
:105A30008A810E94AB2CF092CB040093CC0410938B
:105A4000CD04EE2071F02091CA046091CE047091D3
:105A5000CF043F2DA8018091D0049091D1040E94E1
:105A600014352396E6E00C940237EAECF4E0438127
:105A700021E1421B08F440E021E0628181810E9423
:105A8000F62C0895EAECF4E0438121E1420F08F49A
:105A90004FEF21E0628181810E94F62C0895EAECAB
:105AA000F4E0628121E1621B08F460E021E04381BF
:105AB00081810E94F62C0895EAECF4E0628121E1F4
:105AC000620F08F46FEF21E0438181810E94F62C80
:105AD0000895EAECF4E0818121E0438162818850FD
